:10002600E89427F810913F01139510933F016894C7
:1000360027F80895C3D8D12E14E6109347011D2D35
:1000460010381FEF08F01127112309F45BC0109137
:100056004501103F10E009F41FEF1F931D2D1D37BA
:1000660010E009F41FEF0F911023112309F402C0C9
:10007600A5D8D12E10914601103010E009F41FEFDB
:10008600112309F43EC010913C011F9310914501C4
:100096000F91011710E009F01FEF112309F407C0B3
:1000A60010914501AFD81091450110933C01109174
:1000B6004501103C08F405C01F3D11F008F001C0D1
:1000C60007C0113F09F001C003C0133F09F004C087
:1000D60010E01093460115C0163F09F001C003C099
:1000E600173F09F004C010E0109346010AC0103F04
:1000F60009F004C01FEF1093460103C011E01093EE
:1001060046013FC01D2D103C08F405C01F3D11F0EF
:1001160008F001C007C0113F09F001C003C0133F3A
:1001260009F007C011E0109346011D2D10934501FB
:1001360024C0163F09F001C003C0173F09F004C0F0
:1001460010E01093460119C0103F09F007C01FEFD9
:10015600109346011D2D109345010FC0183F08F45A
:1001660006C01F3F11F008F002C0000006C012E0F2
:10017600109346011D2D10934501109145011093D2
:100186003C011D2D3FD8089522971E81112309F4A5
:1001960004C010911C01B12E02C010E0B12E1B2D1F
:1001A600103010E009F41FEF112309F406C01A817C
:1001B6001158C12E10E4B12E03C01A811157C12E59
:1001C6001C2D20D81C2D10933C011D811F931B81D3
:1001D6000F91100F17D81B2D15D808952297C09888
:1001E600C19A00000000C09A000000000000C098FC
:1001F6000000C198112799991FEF112309F405C032
:100206001CE3188310E0198304C010E318831CE074
:10021600198311279A991FEF1095112309F44AC2E1
:10022600E5E0F0E0FA93EA9310E010831FE31A93F7
:100236001081088101171FEF08F01127112309F01B
:1002460080C0152D10933D0110913D01ECE4F1E0C5
:100256001F730027E10FF01F1081612E1127B3993C
:100266001FEF112309F42CC0162D1F3F10E009F0D3
:100276001FEF112309F417C0CF93DF9310E01A93F1
:1002860010913D011A9310E01A93109126011A93CA
:10029600109122011F93109149010F91100F1A938B
:1002A60073DFDF91CF9110913D011F931FEFECE4B7
:1002B600F1E0AF91AF73BB27EA0FFB1F108334C089
:1002C600162D103010E009F01FEF112309F420C09D
:1002D600CF93DF931FEF1A9310913D011A9310E00D
:1002E6001A93109126011A93109122011F931091CF
:1002F60049010F91100F1A9347DFDF91CF911FEF3E
:10030600E12E1091220110934801152D10933E0104
:1003160010913D011F9310E0ECE4F1E0AF91AF7353
:10032600BB27EA0FFB1F1083C09A000000000000E5
:10033600C098E981FA81108113951083112309F081
:1003460078CF2396112799991FEF1095112309F459
:1003560090C0E5E0F0E0FA93EA9310E010831FE323
:100366001A931081088101171FEF08F01127112336
:1003760009F07EC0152D10933D0110913D01ECE86A
:10038600F1E01F730027E10FF01F1081612E112786
:10039600B3991FEF112309F42CC0162D1F3F10E04F
:1003A60009F01FEF112309F417C0CF93DF9310E074
:1003B6001A9310913D011A9310E01A931091270198
:1003C6001A93109123011F93109149010F91100F59
:1003D6001A93DADEDF91CF9110913D011F931FEF43
:1003E600ECE8F1E0AF91AF73BB27EA0FFB1F108378
:1003F60032C0162D103010E009F01FEF112309F45A
:100406001EC0CF93DF931FEF1A9310913D011A93ED
:1004160010E01A93109127011A93109123011F934C
:10042600109149010F91100F1A93AEDEDF91CF9113
:10043600152D10933E011091230110934801109140
:100446003D011F9310E0ECE8F1E0AF91AF73BB27DD
:10045600EA0FFB1F1083C09A000000000000C0983E
:10046600E981FA81108113951083112309F07ACF5F
:100476002396E5E0F0E0FA93EA9310E010831FE399
:100486001A931081088101171FEF08F01127112315
:1004960009F07EC0152D10933D0110913D01ECEC45
:1004A600F1E01F730027E10FF01F1081612E112765
:1004B600B3991FEF112309F42CC0162D1F3F10E02E
:1004C60009F01FEF112309F417C0CF93DF9310E053
:1004D6001A9310913D011A9310E01A931091280176
:1004E6001A93109124011F93109149010F91100F37
:1004F6001A934ADEDF91CF9110913D011F931FEFB2
:10050600ECECF1E0AF91AF73BB27EA0FFB1F108352
:1005160032C0162D103010E009F01FEF112309F438
:100526001EC0CF93DF931FEF1A9310913D011A93CC
:1005360010E01A93109128011A93109124011F9329
:10054600109149010F91100F1A931EDEDF91CF9182
:100556001091240110934801152D10933E0110911E
:100566003D011F9310E0ECECF1E0AF91AF73BB27B8
:10057600EA0FFB1F1083C09A000000000000C0981D
:10058600E981FA81108113951083112309F07ACF3E
:100596002396E5E0F0E0FA93EA9310E0108318E181
:1005A6001A931081088101171FEF08F011271123F4
:1005B60009F07EC0152D10933D0110913D01ECE030
:1005C600F2E01F730027E10FF01F1081612E112743
:1005D600B3991FEF112309F42CC0162D1F3F10E00D
:1005E60009F01FEF112309F417C0CF93DF9310E032
:1005F6001A9310913D011A9310E01A931091290154
:100606001A93109125011F93109149010F91100F14
:100616001A93BADDDF91CF9110913D011F931FEF21
:10062600ECE0F2E0AF91AF73BB27EA0FFB1F10833C
:1006360032C0162D103010E009F01FEF112309F417
:100646001EC0CF93DF931FEF1A9310913D011A93AB
:1006560010E01A93109129011A93109125011F9306
:10066600109149010F91100F1A938EDDDF91CF91F2
:10067600152D10933E0110912501109348011091FC
:100686003D011F9310E0ECE0F2E0AF91AF73BB27A2
:10069600EA0FFB1F1083C09A000000000000C098FC
:1006A600E981FA81108113951083112309F07ACF1D
:1006B600239684C1E5E0F0E0FA93EA9310E0108314
:1006C600EF93FF931A81FF91EF911A93108108819E
:1006D60001171FEF08F01127112309F06EC1152D20
:1006E6001F931C810F91100F10933D0110913D0136
:1006F600ECE4F1E01F730027E10FF01F1081612E7B
:100706001127B2991FEF112309F42CC0162D1F3F94
:1007160010E009F01FEF112309F417C0CF93DF9300
:1007260010E01A9310913D011A9310E01A9310915C
:1007360026011A93109122011F93109149010F91DE
:10074600100F1A9321DDDF91CF9110913D011F9378
:100756001FEFECE4F1E0AF91AF73BB27EA0FFB1F8D
:10076600108334C0162D103010E009F01FEF11234E
:1007760009F420C0CF93DF931FEF1A9310913D0128
:100786001A9310E01A93109126011A9310912201E0
:100796001F93109149010F91100F1A93F5DCDF9109
:1007A600CF911FEFE12E152D10933E0110912201DE
:1007B6001093480110913D011F9310E0ECE4F1E025
:1007C600AF91AF73BB27EA0FFB1F1083152D109354
:1007D6003D0110913D01ECECF1E01F730027E10FA4
:1007E600F01F1081612E1127B3991FEF112309F411
:1007F6002CC0162D1F3F10E009F01FEF112309F43E
:1008060017C0CF93DF9310E01A9310913D011A930E
:1008160010E01A93109128011A93109124011F9346
:10082600109149010F91100F1A93AEDCDF91CF9111
:1008360010913D011F931FEFECECF1E0AF91AF7308
:10084600BB27EA0FFB1F108332C0162D103010E0B5
:1008560009F01FEF112309F41EC0CF93DF931FEF9A
:100866001A9310913D011A9310E01A9310912801E2
:100876001A93109124011F93109149010F91100FA3
:100886001A9382DCDF91CF91152D10933E011091C2
:1008960024011093480110913D011F9310E0ECECE8
:1008A600F1E0AF91AF73BB27EA0FFB1F1083152D45
:1008B60019311FEF08F01127112309F471C0152D06
:1008C60010933D0110913D01ECE0F2E01F7300270B
:1008D600E10FF01F1081612E1127B4991FEF11232C
:1008E60009F42CC0162D1F3F10E009F01FEF11234D
:1008F60009F417C0CF93DF9310E01A9310913D01CE
:100906001A9310E01A93109129011A931091250158
:100916001F93109149010F91100F1A9335DCDF9147
:10092600CF9110913D011F931FEFECE0F2E0AF91E4
:10093600AF73BB27EA0FFB1F108332C0162D103092
:1009460010E009F01FEF112309F41EC0CF93DF93C7
:100956001FEF1A9310913D011A9310E01A9310910C
:1009660029011A93109125011F93109149010F91A6
:10097600100F1A9309DCDF91CF91152D10933E01CC
:10098600109125011093480110913D011F9310E02D
:10099600ECE0F2E0AF91AF73BB27EA0FFB1F1083C9
:1009A600C09A000000000000C098E981FA81108119
:1009B60013951083112309F08ACE23960895198181
:1009C60021D4198110933C0118811CD40895CF932A
:1009D600DF931A811A931A811A93F1DFDF91CF916F
:1009E600188110D408951981103010E009F01FEF16
:1009F600112309F412C0CF93DF93109122011155F0
:100A06001F93109149010F91100F1A931A811A938F
:100A16001A811A93DCDFDF91CF91089521971FEF9A
:100A260000914701002309F01095112309F403C032
:100A360010E01093460110913F01103010E011F0C4
:100A460008F01FEF1F9310914601103010E009F4D3
:100A56001FEF0F911023112309F40AC0CF93DF93E0
:100A6600BDDBDF91CF9110913F011A9510933F01A5
:100A7600C2D3112309F401C0DDDA1FEF00914A0148
:100A8600002309F01095112309F498C0109139013B
:100A96001A951093390110913901103010E009F4BC
:100AA6001FEF112309F411C010911D01113010E040
:100AB60009F41FEF112309F402C01EEFA3D31EEFA2
:100AC60010933C011FE1109339011AE010934A017B
:100AD60010914B011F6E10934301109144011F9317
:100AE600109143010F91011710E009F01FEF112338
:100AF60009F41CC000914301112704FD1FEF109556
:100B0600112309F40AC0CF93DF9310E41A931FE769
:100B16001A9369DFDF91CF9109C0CF93DF9310E479
:100B26001A9310E01A935FDFDF91CF911091430182
:100B360010934401B5D31695079516950795169506
:100B46000795102FA12E1A2D123439F028F41E33D2
:100B560018F040E0189401C041E010E009F41FEFDE
:100B6600112309F404C010E41093410103C01A2DA7
:100B760010934101109141011F93109142010F9171
:100B8600011710E009F01FEF112309F417C0CF93E6
:100B9600DF931091220111521F93109149010F9179
:100BA600100F1A9310E01A93109141011A930FDF58
:100BB600DF91CF911091410110934201089510B336
:100BC60010934B0110914B011F611F3F10E009F07C
:100BD6001FEF10934001109140010895EAE0F0E004
:100BE600FA93EA9310E010831FE01A9310810881AC
:100BF60001171FEF08F01127112309F01FC01A2D46
:100C06001F5D1F93E4E0F0E0EF93FF931A2D012F91
:100C16001127FF91EF91E00FF11F39D3E9EFF0E0D3
:100C2600AF91AF73BB27EA0FFB1F1083E981FA81EF
:100C3600108113951083112309F0D9CF23961091B3
:100C46001B01110F13BD0895EAE0F0E0FA93EA9351
:100C560010E01083EF93FF931A81FF91EF911A939F
:100C66001081088101171FEF08F01127112309F0E1
:100C760010C0929810E008ECE3D2929A10E008ECCB
:100C8600DFD2E981FA81108113951083112309F0CF
:100C9600E8CF239608951091FA001F771093FA0073
:100CA6001091220111541F93109149010F91100FB9
:100CB600C12ECF93DF931C2D1A931091FA001A932D
:100CC6007EDEDF91CF910895929810E010933A015D
:100CD60010E00AE0B5D273DF1095112309F4F8CFBE
:100CE60010E00AE0ADD2CF93DF9398DEDF91CF918B
:100CF60066DF1F93109148011F3F10E009F01FEFB8
:100D06000F91102B112309F4EECF109148011F9378
:100D1600109122010F91011710E009F41FEF112322
:100D260009F407C010913E011F771093FA00B3DF54
:100D360071C0109148011F93109123010F91011763
:100D460010E009F41FEF112309F419C010913E01B8
:100D56001F771093FB001091230111541F931091DC
:100D660049010F91100FC12ECF93DF931C2D1A93BB
:100D76001091FB001A9323DEDF91CF914BC01091A7
:100D860048011F93109124010F91011710E009F4F7
:100D96001FEF112309F419C010913E011F7710931C
:100DA600FC001091240111541F93109149010F91D9
:100DB600100FC12ECF93DF931C2D1A931091FC00B8
:100DC6001A93FDDDDF91CF9125C0109148011F9345
:100DD600109125010F91011710E009F41FEF11235F
:100DE60009F418C010913E011F771093FD00109171
:100DF600220111541F93109149010F91100FC12E1A
:100E0600CF93DF931C2D1A931091FD001A93D7DD13
:100E1600DF91CF911FEF10933A011FEF1093480116
:100E2600929A089513E017BB1CEF18BB10E014BB91
:100E36001EEF15BB14E011BB1CEF12BB10E014BD76
:100E46001EE015BD19B7106819BF17B1106C17B998
:100E560010B310934B011AE002D210911B01110F2F
:100E660013BD10E8212A7894CF93DF9314E01A93E8
:100E7600EBDEDF91CF91B2DE11E004EFE1D113B3E7
:100E86001695169516951095177010934901CF93E0
:100E9600DF93109149011A93D7DEDF91CF9110E0CD
:100EA600109345011FEF10933C01109121011093FF
:100EB600FA001FEF10933A011FEF10934401E5E08B
:100EC600F0E0FA93EA9310E010831FE31A9310817F
:100ED600088101171FEF08F01127112309F034C00C
:100EE600152D1F931FEFECE4F1E0AF91AF73BB2715
:100EF600EA0FFB1F1083152D1F931FEFECE8F1E09F
:100F0600AF91AF73BB27EA0FFB1F1083152D1F93FD
:100F16001FEFECECF1E0AF91AF73BB27EA0FFB1FBD
:100F26001083152D1F931FEFECE0F2E0AF91AF7326
:100F3600BB27EA0FFB1F1083E981FA811081139505
:100F46001083112309F0C4CF239610E010933B01C0
:100F560010E010933F01A4D11695079516950795B5
:100F660016950795102FA12E10E4109341011091AC
:100F76004101109342011AE010934A01089552DF8D
:100F86001FEF10933C011FEF1093480113B3169502
:100F9600169516951095177010934901CF93DF9308
:100FA6003DDDDF91CF910BDE112309F4EFCF0091E8
:100FB6004B01112705FD1FEF1095112309F401C000
:100FC60083DE00914B01112706FD1FEF10951123BB
:100FD60009F406C01091FA001A951093FA005BDE28
:100FE60000914B01112707FD1FEF1095112309F4FE
:100FF60006C01091FA0013951093FA004CDE10E02B
:101006000AE01ED1DCDD1095112309F4F8CF10E0BB
:101016000AE016D1B5CF0000FECFF89412E00BEA35
:101026001EBF0DBF1127E0E1F0E0A0E0B0E0319671
:10103600319711F01D93FCCFA0E6B0E0E0E0F4E0BC
:101046003196319711F01D93FCCFCBEED2E0F89498
:101056001FE7212213E81093600012BF13E013BFAD
:1010660011E019BF10E017B914EC16B918E11AB956
:101076001FE019B910E010BD10E010936100109345
:10108600620010936300579A10E01093E4001093E7
:10109600E5001093E6001EE810BD1CB1222433249F
:1010A6006ECFEF93FF930F931F931FB71F9310916C
:1010B600600002B7100F12BF1FE7212204B115B15D
:1010C6000093F7001093F80010914701112319F0CF
:1010D60011501093470110914A01112319F0115034
:1010E60010934A0110E8212A369A1F911FBF1F91BB
:1010F6000F91FF91EF911895EF93FF930F931F9325
:101106001FB71F938DD71F911FBF1F910F91FF917F
:10111600EF911895EF93FF930F931F931FB71F93AC
:101126001091E600112311F4559816C00091E500C0
:101136001127E7EEF0E0E00FF11F10811CB91091C6
:10114600E6001A951093E60009F4559803950031C8
:1011560009F400270093E5001F911FBF1F910F910F
:10116600FF91EF911895EF93FF930F931F931FB77E
:101176001F9310916300103811F40CB118C01CB104
:101186001F93112700916100E4E6F0E0E00FF11FE4
:101196001F911083109163001395109363000395BC
:1011A600003809F40027009361005F99E2CF1F9190
:1011B6001FBF1F910F91FF91EF911895109163003A
:1011C6001123E1F3009162001127E4E6F0E0E00F5D
:1011D600F11F1081F894E0916300EA95E0936300B3
:1011E60027FC7894009162000395003809F40027E3
:1011F600009362000895112700916300002309F00F
:10120600109508950091E6000031E1F3F8940091FD
:10121600E400E7EEF0E0E00F0027F01F10830091F6
:10122600E60003950093E6000091E4000395003183
:1012360009F400270093E400559A27FC7894089552
:10124600A80111274117510749F00DE316E0015097
:1012560010400000E1F741505040B9F708951123BE
:1012660031F003E10A950000E9F71A95D1F70895E0
:101276002150304018F011911D93FACF089527FCA4
:101286007894E199FCCFF894E199F9CF0895F7DFC6
:10129600EEBBFFBBE09A00001DB327FC78940895CF
:1012A600F8940091F7001091F80027FC78940895BF
:0412B60008951895EA
:100000000FC85AC959C97BC857C956C955C954C917
:1000100053C94AC851C9AAC880C84EC94DC94CC99C
:060020004BC94AC949C9A1
:00000001FF
